:020000040000fa
:080000000002040000000000f2
:020000040000fa
:04000800dc02000016
:020000040000fa
:04000c00dc02000012
:020000040000fa
:04001000dc0200000e
:020000040000fa
:04001400dc0200000a
:020000040000fa
:04001800dc02000006
:020000040000fa
:04001c00dc02000002
:020000040000fa
:04002000dc020000fe
:020000040000fa
:04002400dc020000fa
:020000040000fa
:04002800dc020000f6
:020000040000fa
:04002c00dc020000f2
:020000040000fa
:04003000dc020000ee
:020000040000fa
:04003400c8020000fe
:020000040000fa
:04003800dc020000e6
:020000040000fa
:04003c00dc020000e2
:020000040000fa
:04004000dc020000de
:020000040000fa
:04004400dc020000da
:020000040000fa
:04004800dc020000d6
:020000040000fa
:04004c00dc020000d2
:020000040000fa
:04005000dc020000ce
:020000040000fa
:04005400dc020000ca
:020000040000fa
:04005800dc020000c6
:020000040000fa
:04005c00dc020000c2
:020000040000fa
:04006000dc020000be
:020000040000fa
:04006400dc020000ba
:020000040000fa
:04006800dc020000b6
:020000040000fa
:04006c00dc020000b2
:020000040000fa
:04007000dc020000ae
:020000040000fa
:04007400dc020000aa
:020000040000fa
:04007800dc020000a6
:020000040000fa
:04007c00dc020000a2
:020000040000fa
:04008000dc0200009e
:020000040000fa
:04008400dc0200009a
:020000040000fa
:04008800dc02000096
:020000040000fa
:04008c00dc02000092
:020000040000fa
:04009000dc0200008e
:020000040000fa
:04009400dc0200008a
:020000040000fa
:04009800dc02000086
:020000040000fa
:04009c00dc02000082
:020000040000fa
:0400a000dc0200007e
:020000040000fa
:0400a400dc0200007a
:020000040000fa
:0400a800dc02000076
:020000040000fa
:0400ac00dc02000072
:020000040000fa
:0400b000dc0200006e
:020000040000fa
:0400b400dc0200006a
:020000040000fa
:0400b800dc02000066
:020000040000fa
:0400bc00dc02000062
:020000040000fa
:0400c000dc0200005e
:020000040000fa
:0400c400dc0200005a
:020000040000fa
:0400c800dc02000056
:020000040000fa
:0400cc00dc02000052
:020000040000fa
:0400d000dc0200004e
:020000040000fa
:0400d400dc0200004a
:020000040000fa
:0400d800dc02000046
:020000040000fa
:0400dc00dc02000042
:020000040000fa
:0400e000dc0200003e
:020000040000fa
:0400e400dc0200003a
:020000040000fa
:0400e800dc02000036
:020000040000fa
:0400ec00dc02000032
:020000040000fa
:0400f000dc0200002e
:020000040000fa
:0400f400dc0200002a
:020000040000fa
:0400f800dc02000026
:020000040000fa
:0400fc00dc02000022
:020000040000fa
:04010000dc0200001d
:020000040000fa
:04010400dc02000019
:020000040000fa
:04010800dc02000015
:020000040000fa
:04010c00dc02000011
:020000040000fa
:04011000dc0200000d
:020000040000fa
:04011400dc02000009
:020000040000fa
:04011800dc02000005
:020000040000fa
:04011c00dc02000001
:020000040000fa
:04012000dc020000fd
:020000040000fa
:04012400dc020000f9
:020000040000fa
:04012800dc020000f5
:020000040000fa
:04012c00dc020000f1
:020000040000fa
:04013000dc020000ed
:020000040000fa
:04013400dc020000e9
:020000040000fa
:04013800dc020000e5
:020000040000fa
:04013c00dc020000e1
:020000040000fa
:04014000dc020000dd
:020000040000fa
:04014400dc020000d9
:020000040000fa
:04014800dc020000d5
:020000040000fa
:04020800dc02000014
:020000040000fa
:04020c00dc02000010
:020000040000fa
:04021000dc0200000c
:020000040000fa
:04021400dc02000008
:020000040000fa
:04021800dc02000004
:020000040000fa
:04021c00dc02000000
:020000040000fa
:04022000dc020000fc
:020000040000fa
:04022400dc020000f8
:020000040000fa
:04022800dc020000f4
:020000040000fa
:04022c00dc020000f0
:020000040000fa
:04023000dc020000ec
:020000040000fa
:04023400c8020000fc
:020000040000fa
:04023800dc020000e4
:020000040000fa
:04023c00dc020000e0
:020000040000fa
:04024000dc020000dc
:020000040000fa
:04024400dc020000d8
:020000040000fa
:04024800dc020000d4
:020000040000fa
:04024c00dc020000d0
:020000040000fa
:04025000dc020000cc
:020000040000fa
:04025400dc020000c8
:020000040000fa
:04025800dc020000c4
:020000040000fa
:04025c00dc020000c0
:020000040000fa
:04026000dc020000bc
:020000040000fa
:04026400dc020000b8
:020000040000fa
:04026800dc020000b4
:020000040000fa
:04026c00dc020000b0
:020000040000fa
:04027000dc020000ac
:020000040000fa
:04027400dc020000a8
:020000040000fa
:04027800dc020000a4
:020000040000fa
:04027c00dc020000a0
:020000040000fa
:04028000dc0200009c
:020000040000fa
:04028400dc02000098
:020000040000fa
:04028800dc02000094
:020000040000fa
:04028c00dc02000090
:020000040000fa
:04029000dc0200008c
:020000040000fa
:04029400dc02000088
:020000040000fa
:04029800dc02000084
:020000040000fa
:04029c00dc02000080
:020000040000fa
:0402a000dc0200007c
:020000040000fa
:0402a400dc02000078
:020000040000fa
:0402a800dc02000074
:020000040000fa
:0402ac00dc02000070
:020000040000fa
:0402b000dc0200006c
:020000040000fa
:0402b400dc02000068
:020000040000fa
:0402b800dc02000064
:020000040000fa
:0402bc00dc02000060
:020000040000fa
:0402c000dc0200005c
:020000040000fa
:0402c400dc02000058
:020000040000fa
:0402c800dc02000054
:020000040000fa
:0402cc00dc02000050
:020000040000fa
:0402d000dc0200004c
:020000040000fa
:0402d400dc02000048
:020000040000fa
:0402d800dc02000044
:020000040000fa
:0402dc00dc02000040
:020000040000fa
:0402e000dc0200003c
:020000040000fa
:0402e400dc02000038
:020000040000fa
:0402e800dc02000034
:020000040000fa
:0402ec00dc02000030
:020000040000fa
:0402f000dc0200002c
:020000040000fa
:0402f400dc02000028
:020000040000fa
:0402f800dc02000024
:020000040000fa
:0402fc00dc02000020
:020000040000fa
:04030000dc0200001b
:020000040000fa
:04030400dc02000017
:020000040000fa
:04030800dc02000013
:020000040000fa
:04030c00dc0200000f
:020000040000fa
:04031000dc0200000b
:020000040000fa
:04031400dc02000007
:020000040000fa
:04031800dc02000003
:020000040000fa
:04031c00dc020000ff
:020000040000fa
:04032000dc020000fb
:020000040000fa
:04032400dc020000f7
:020000040000fa
:04032800dc020000f3
:020000040000fa
:04032c00dc020000ef
:020000040000fa
:04033000dc020000eb
:020000040000fa
:04033400dc020000e7
:020000040000fa
:04033800dc020000e3
:020000040000fa
:04033c00dc020000df
:020000040000fa
:04034000dc020000db
:020000040000fa
:04034400dc020000d7
:020000040000fa
:04034800dc020000d3
:020000040000fa
:100400000f8020000e7f22000e01880000000000f7
:10041000000020000000e000020032000001200087
:100420002002880014000700650007000000e000bb
:1004300003003a0000002000010020000200370005
:100440000000200001002000810f70000100320038
:1004500014000700000020000000e000020032004d
:100460000000020000000000b805020000000000cb
:100470000040da000000fe004440a900e001200036
:100480000000e0000300320000002000a00188000e
:100490004440a800000006008a1f78008b1f7800e7
:1004a0000000060091018800800478000000eb0045
:1004b0001a003700e284440032a0b4009905ba0063
:1004c000e284440032a0b4009906ba00e2844400f9
:1004d00032a0b4000006eb00476fde00fd07b2005b
:1004e000636ce10003003a00ebff07000000eb0043
:1004f0000a003700606ce10004003a00005deb0088
:100500008b05e900fdff3e00040037006168e10053
:10051000010032000086eb000b00070019c7ba008b
:100520001905ba000e04e00003003a000a00e000da
:10053000e0ff3a0000000600fe07b2009e018800be
:100540008a047800f5ff3700395dba008b05e900b1
:100550000c003200295dba008b05e900080032006a
:100560000c00e00003003a00e284440032a0b40032
:10057000f5ff370019ddba008b05e900faff3a00f4
:100580008904e800e184440032a0b40000000600c1
:100590003400f800881f780008002000a8018800b7
:1005a0004f0478000000fa008460a9000080fa007f
:1005b0003400f900004006000040da000000fe00b0
:0405c0000000050032
:020000040000fa
:1005c4004269000067200000426f00006f62000073
:1005d40073200000202000002020000020200000c4
:1005e40020200000202000002020000020570000d0
:0c05f40068610000743f0000000000007f
:020000040000fa
:100600000200fa00000f7800020037007e3e090069
:10061000000000001e00780000f0a7000000ea00c3
:100620000000ea004f00de00004078001e0fe900e5
:100630000004e000f5ff3a000080fa000000060028
:100640000200fa00004f7800114798001e00fb00de
:100650000080e80080407800600020008008dd0015
:100660001e40900000c04000bf0007000080fa005c
:10067000000006001e00fa00500f9800610f98005d
:100680000000eb00300798000000eb0040079800e6
:100690000000eb001007980008003700ea00470050
:1006a0001e0090000080400021c0b3000148780087
:1006b0001e0090000000e800100798001e00900047
:1006c000e70f5000f5ff34000000eb001007980022
:1006d00008003700f20047001e0090000080400034
:1006e00021c0b300014878001e0090000000e8001f
:1006f000100798001e009000e70f5000f5ff34002f
:100700000000eb00300798000000eb004007980065
:100710004d0037000021ef006a0047000001eb00a8
:10072000810020004f0007007200470012002000e7
:10073000810020004b000700000000002004800022
:10074000680060000000e000fcff32000000eb00e9
:10075000200798000b0037002e0090000000e800f2
:1007600000004700a04890006a0147002e0090005a
:1007700000004100014878002e0090000000e800d1
:10078000200798002e009000e60f5000f2ff340082
:10079000be0090006e089000808f500006003d0063
:1007a0003e009000de08900000804000104078007d
:1007b000105798000200370020c0b300105798006f
:1007c0003e0090000000e800300798000000eb00b9
:1007d000000f7800070037001e00e8000000470007
:1007e000a0509000720047001e00400001487800b1
:1007f0001e0fe8001e007800e60f5000f6ff3400e0
:100800003e009000e80f50000d003400ce00900034
:100810006e089000808f500009003d004e0090004f
:10082000de0890000080400010407800105f9800c3
:100830004e0090000000e8004007980002003700da
:1008400020c0b300105f98006e08900000004000c8
:10085000800078003e009000808f5000adff3c008b
:100860008bff37000c00fa00300798004107980012
:10087000520798000000eb00000f7800de009000a7
:10088000210798000000eb001007980012003700c5
:100890004e0090009e007800808f50000b003d00bd
:1008a0001e009000804078002e00900000407800ec
:1008b00063ff07001e007800be009000008040002b
:1008c00010407800510007001e0fe8001e00900045
:1008d0000000e800100798001e009000e70f50008d
:1008e000ebff34000080fa00000006000000fa0070
:1008f000d0092000a01088008a40a90017e2a800b3
:10090000800220003eff070080c3b30016000700ee
:1009100090c3b3001400070040c1b30012000700e9
:1009200000c7b3001000070060c5b3000e00070049
:10093000c0c6b3000c000700800c200030ff070089
:1009400080c3b30008000700c0c0b3000600070062
:1009500010c0b300040007001000200028ff0700ab
:100960000080fa00000006000200fa00004f780044
:100970008a40a9001602a80000000000b010800004
:10098000610060000000e000fcff3a008a40a9001e
:10099000c007200090108800000000005004800074
:1009a000640060000000e000fcff32008a40a90003
:1009b0001222ef000000000050048000640060007c
:1009c0000000e000fcff32008a40a9001e00fb008e
:1009d0009010880000000000500480006400600057
:1009e0000000e000fcff32008a40a9001642a80087
:1009f00000000000b0108000640060000000e00013
:100a0000fcff3a000080fa00000006000200fa0035
:100a1000004f78001602a80000000000b01080000f
:100a2000610060000000e000fcff3a008a40a9007d
:100a3000c0072000901088000000000050048000d3
:100a4000640060000000e000fcff32008a40a90062
:100a5000000c20009010880000000000500480006e
:100a6000640060000000e000fcff32008a40a90042
:100a70001e00fb0090108800000000005004800061
:100a8000640060000000e000fcff32001642a80095
:100a900000000000b0108000640060000000e00072
:100aa000fcff3a000080fa00000006000200fa0095
:100ab000004f78001602a80000000000b01080006f
:100ac000610060000000e000fcff3a008a40a900dd
:100ad000c007200090108800000000005004800033
:100ae000640060000000e000fcff32008a40a900c2
:100af00000042000901088000000000050048000d6
:100b0000640060000000e000fcff32008a40a900a1
:100b10001e00fb00901088000000000050048000c0
:100b2000640060000000e000fcff32001642a800f4
:100b300000000000b0108000640060000000e000d1
:100b4000fcff3a000080fa00000006000000fa00f6
:100b5000213a8000f08f2f0000806000203a88004a
:100b60000080eb00601988000080fa000000060099
:100b70002000fa00f5ff07005cff07000b000700ec
:100b8000202e2800e20047001c000900b058780021
:100b9000d001b100d0012000000f78000e80e800e5
:100ba0009e007800b3fe0700ffff37000000fa0048
:100bb0000421ef00210880000003200001007000e4
:100bc00020088800400d2300100888000021ef0055
:100bd0008460a9009460a80005e1a8000080fa00e4
:040be000000006000b
:020000040000fa
:020000040001f9
:0457f8000ff90000a5
:020000040000fa
:020000040001f9
:0457fc007f3f0000eb
:00000001FF
